:020000040000FA
:80000000FFFFFFFFFFFFFFFFFFFFFFFFFFFFFFFFFFFFFFFFFFFFFFFFFFFFFFFFFFFFFFFF6AF7F7F7F7F7F7F3FBF2F8FBF0F1F9F9FDF8F9FBFFF8FCF8FBFAFFFEF9FCFCFCF8F8FCFCFAFEFAFAFAFCE0FFFFFFFFFFFFFFFFFFFFFFFFFFFFFFFFFFFFFFFFFFFFFFFFFFFFFFFFFFFFFFFFFFFFFFFFFFFFFFFFFFFFFFFFFFFFFFFFFFFFFFFFFF9E
:80008000FFFFFFFFFFFFFFFFFFFFFFFFFFFFFFFFFFFFFFFFFFFFFFFFFFFFFFFFFFFFFFFFFFFFFFFFFFFFFFFFFFFFFFFFFFFFFFFFFFFFFFFFFFFFFFFFFFFFFFFFFFFFFFFFFFFFFFFFFFFFFFFFFFFFFFFFFFFFFFFFFFFFFFFFFFFFFFFFFFFFFFFFFFFFFFFFFFFFFFFFFFFFFFFFFFFFFFFFFFFFFFFFFFFF000000000000000000000000000072
:80010000000000000000000000000000000000000000000000000000000000000000000000000000000004040404040404040000000000000000000000000404040404040404040404040404040404040404040404040404040404040404040404040404040404040404040404040404040404040404040404040505050505050505000047
:8001800000000000000000000000010101010101010101010101010101010101010101010101010101010101010101010101050505050505050501010101010101010101010105050505050505050505050504040404040404040404040404040404050505050404040404040404040404040404040404040404040404040404040404049F
:80020000040404040404000000000000000001010101010101010000000000000000000000000101010101010101010101010101010101010101050505050505050501010101010101014141414145454545050505050505050505050505050505050505050505050505040404040404040404040404040404040404040404040404040422
:8002800004040404040404040404040404040000000000000000000000000000000000000000000000000101010101010101000000000000000000000000010101010505050505050505010101010101010141414141414141411111111101010101010101010101010101010101010101010101010101010101010101010101010100001A
:80030000000000000000000000000000000000000000000000000000000000000000000000000000000000000000000000000000000000000000000000000000000001010101010101010404040404040404000000000000000040404040404040400000000000000000000000000000000010101010000000000000000000000000000015
:800380000000000000000000000000000000000000000000000000000000000000000000000000000000000000000000000000000000000000000000000000000000000000000000000000000000000000000404040404040404000000000000000040404040404040400101010100000000000000000000000000000000000000000000D9
:800400000000000000001010101000000000000000000000000000000000000000000000000000000000000000000000000000000000A3A3A3A3DCDCDCDC0000000000000000000000000000000000000000000000000000000000000000000000000000000004040404040404040000000000000000404040404040404000000000000020
:80048000000000000000000000000101010100000000000000000000000000000000000000000000000000000000101010100000000000000000000000000000000000000000000000000000000000000000000000000000000000000000000000000000000000000000000000000404040404040404000000000000000040404040444410
:800500004444040404040404040404040404040404040505050505050505040404040404040404040404040404040404040404040404141414141414141404040404040404040000000010101010101010101010101010101010101010101010101010101010101010101010101010101010101010109494949494949494101010101010AB
:80058000101050505050D0D0D0D0808080808080808080808080C0C0C0C0C0C0C0C0C0C0C0C0C0C0C0C0C0C0C0C0C0C0C0C0C0C0C0C0C0C0C0C0C0C0C0C0C0C0C0C0C0C0C0C0C0C0C0C0C0C0C0C050505050707070704040404040404040000000001010101010101010101010101010101010101010101010101010101094949494B4B4E3
:80060000B4B4101010101010101050505050505050501010101030303030303030307070707040404040404040404040404040404040707070704040404060606060404040406060606040404040606060604040404060606060404040404040404040404040101010101010101000000000000000000000000010101010101010101010B2
:8006800010109494949494949494101010101010101050505050505050501010101010101010181818185858585850505050505050505050505050505050404040404040404040404040404040404040404040404040404040404040404040404040404040404040404040404040000000000000000000000000000000001010101010109A
:80070000101000000000000000008C8C8C8C8C8C8C8C0000000000000000404040404E4E4E4E0C0C0C0C0C0C0C0C0C0C0C0C4C4C4C4C4C4C4C4C4C4C4C4C4C4C4C4C4C4C4C4C4C4C4C4C4C4C4C4C4C4C4C4C4E4E4E4E4C4C4C4C4C4C4C4C4C4C4C4C4C4C4C4C505050504242424242424242424242420000000000000000DEDEDEDE2121A7
:800780002121000000000000000000000000020202020000000002020202000000009E9E9E9E9C9C9C9C020202020000000042424242C4C4C4C4848484848484848484848484C4C4C4C4C4C4C4C4C4C4C4C4C4C4C4C4C4C4C4C4C4C4C4C4C4C4C4C4C4C4C4C4C4C4C4C4C4C4C4C4C4C4C4C4E4E4E4E4C4C4C4C4404040406060606040401F
:8008000040404040404000000000000000000000000000000000000000000000000000000000000000008C8C8C8C8C8C8C8C000000000000000050505050F4F4F4F484848484A4A4A4A484848484C4C4C4C4C4C4C4C4C4C4C4C4C4C4C4C4C4C4C4C4C4C4C4C4C4C4C4C4C4C4C4C4C4C4C4C4C4C4C4C4C4C4C4C4C4C4C4C4C4C4C4C4404088
:8008800040404040404040404040404040400000000000000000000000000000000010101010000000000000000000000000ACACACACACACACAC000000000000000040404040E4E4E4E4A4A4A4A4A4A4A4A4B4B4B4B4F4F4F4F4E4E4E4E4E4E4E4E4E4E4E4E4E4E4E4E4E4E4E4E4E4E4E4E4E4E4E4E4E4E4E4E4E4E4E4E4E4E4E4E4E4E420
:80090000E4E4E4E4E4E44040404040404040404040404040404020202020000000000000000000000000000000000000000000000000000000008C8C8C8C8C8C8C8C020202020000000060606060E6E6E6E68484848485858585848484848484848484848484848484849494949494949494848484848484848484848484848484848484D3
:8009800084848484848484848484868686860000000002020202000000000000000000000000000000000000000000000000000000000000000000000000000000008D8D8D8D8C8C8C8C000000000000000040404040C4C4C4C48484848484848484A4A4A4A4A4A4A4A4848484848585858584848484A4A4A4A4A4A4A4A4A5A5A5A5B6B6A7
:800A0000B6B6B7B7B7B7A5A5A5A5A4A4A4A4A4A4A4A4B5B5B5B53030303030303030313131313030303030303030313131313030303030303030101010101010101010101010101010109F9F9F9F9C9C9C9C1010101010101010404040404C4C4C4C0C0C0C0C0C0C0C0C1C1C1C1C0C0C0C0C0C0C0C0C0C0C0C0C2F2F2F2F2F2F2F2F0C0C12
:800A80000C0C0C0C0C0C0C0C0C0C2E2E2E2E2E2E2E2E2E2E2E2E3E3E3E3E3E3E3E3E222222222222222222222222323232323232323232323232323232323232323232323232000000003E3E3E3E000000003232323232323232323232329C9C9C9C9C9C9C9C101010101010101070707070D4D4D4D4949494949494949484848484C4C426
:800B0000C4C4C4C4C4C4C4C4C4C4C4C4C4C4C4C4C4C4C4C4C4C4C4C4C4C4E7E7E7E7E7E7E7E7C4C4C4C4C4C4C4C4C4C4C4C4E6E6E6E6626262626262626272727272727272722222222222222222222222223232323232323232323232323232323232323232BEBEBEBEBEBEBEBE323232323232323250505050D4D4D4D4949494949494E5
:800B8000949495959595D4D4D4D4D4D4D4D4D4D4D4D4C4C4C4C4C4C4C4C4C4C4C4C4C4C4C4C4C4C4C4C4C4C4C4C4C4C4C4C4C4C4C4C4E7E7E7E7E7E7E7E74040404040404040404040404343434303030303030303031313131313131313030303030303030303030303030303038F8F8F8F8F8F8F8F030303030303030343434343CBCBB3
:800C0000CBCB8B8B8B8B8B8B8B8B88888888C8C8C8C8C8C8C8C8C8C8C8C8C8C8C8C8C8C8C8C8C8C8C8C8C8C8C8C8C8C8C8C8C8C8C8C8C8C8C8C8C8C8C8C8C8C8C8C8C8C8C8C84040404040404040636363636363636300000000000000000000000001010101010101010101010111111111111111118D8D8D8D8D8D8D8D0101010111118C
:800C80001111515151515D5D5D5D1D1D1D1D1D1D1D1D1D1D1D1D5D5D5D5D5D5D5D5D5D5D5D5D5C5C5C5C5C5C5C5C5C5C5C5C5C5C5C5C5C5C5C5C5C5C5C5C5C5C5C5C5C5C5C5C4C4C4C4C4C4C4C4C4040404040404040505050504040404000000000000000002323232323232323000000000000000000000000010101018D8D8D8D8D8DD8
:800D00008D8D111111111111111141414141454545450505050515151515151515151515151515151515151515151515151515151515151515151515151514141414141414141414141414141414343434341414141410101010101010102020202000000000000000000000000000000000000000000000000020202020020202020202C5
:800D800002028C8C8C8C8C8C8C8C000000000000000040404040C4C4C4C4B4B4B4B494949494A4A4A4A48484848484848484B4B4B4B494949494949494949494949494949494B4B4B4B4B4B4B4B4B4B4B4B49494949494949494949494941010101010101010131313131010101010101010101010100000000000000000000000000000B3
:800E000000000000000000000000959595952B2B2B2B000000008C8C8C8C8C8C8C8C232323232323232340404040C8C8C8C8888888888B8B8B8B8B8B8B8B8B8B8B8B9B9B9B9B9B9B9B9B8B8B8B8B8B8B8B8B8B8B8B8B9B9B9B9B9B9B9B9B9B9B9B9B9B9B9B9B9B9B9B9B9B9B9B9B9B9B9B9B131313131313131310101010101010101010AE
:800E80001010101010101010101010101010101010101010101000000000000000008C8C8C8C8C8C8C8C101010100000000040404040484848482A2A2A2A2A2A2A2A0808080809090909080808080A0A0A0A0A0A0A0A0A0A0A0A1A1A1A1A1A1A1A1A0A0A0A0A0A0A0A0A0A0A0A0A1A1A1A1A1A1A1A1A1A1A1A1A1212121212121212121272
:800F000012121212121212121212121212121010101010101010101010101010101030303030101010109C9C9C9C9C9C9C9C020202020000000040404040C8C8C8C888888888888888888888888888888888A9A9A9A9A9A9A9A9888888888888888888888888888888888888888888888888989898989A9A9A9A8A8A8A8A8A8A8A8A0202C9
:800F8000020202020202000000000000000000000000000000000000000002020202020202020000000000000000000000008C8C8C8C8C8C8C8C0303030300000000404040404C4C4C4C0C0C0C0C0C0C0C0C0C0C0C0C4C4C4C4C4C4C4C4C4C4C4C4C4C4C4C4C4C4C4C4C6E6E6E6E6E6E6E6E4C4C4C4C4D4D4D4D4C4C4C4C6E6E6E6E6E6E21
:801000006E6E6E6E6E6E727272727272727262626262626262622222222222222222222222222222222222222222222222222222222222222222AEAEAEAEAEAEAEAE000000000000000040404040C4C4C4C4A4A4A4A48484848484848484848484848686868684848484848484848484848484848484848484848484848484848484A5A5EA
:80108000A5A5A5A5A5A58484848484848484000000002121212121212121212121213131313133333333232323232323232323232323333333333131313131313131BDBDBDBDBDBDBDBD313131313333333373737373F5F5F5F5949494949494949494949494D4D4D4D4D6D6D6D6D4D4D4D4D4D4D4D4D4D4D4D4C4C4C4C4C4C4C4C4C4C496
:80110000C4C4C4C4C4C4C4C4C4C4C4C4C4C4C4C4C4C4C4C4C4C44343434343434343404040404040404000000000030303030303030303030303131313131313131303030303030303038F8F8F8F8F8F8F8F03030303969696967C7C7C7C0000000003030303434343434F4F4F4F0F0F0F0F0F0F0F0F0F0F0F0F4F4F4F4F4C4C4C4C4C4CD3
:801180004C4C4C4C4C4C4C4C4C4C4C4C4C4C4C4C4C4C4C4C4C4C4C4C4C4C4C4C4C4C4C4C4C4C4C4C4C4C4C4C4C4C4040404040404040404040404040404003030303030303030000000000000000000000000202020202020202020202029E9E9E9E9E9E9E9E0202020202020202424242424E4E4E4E0E0E0E0E0E0E0E0E0E0E0E0E4E4EC3
:801200004E4E4E4E4E4E4E4E4E4E4E4E4E4E4E4E4E4E4C4C4C4C4C4C4C4C4C4C4C4C4C4C4C4C4E4E4E4E4C4C4C4C4C4C4C4C4C4C4C4C4242424240404040404040404040404004040404000000000000000000000000010101010101010100000000000000008888888888888888000000000000000050505050D2D2D2D282828282828276
:80128000828282828282C6C6C6C6C4C4C4C4C4C4C4C4C4C4C4C4C4C4C4C4C0C0C0C0C2C2C2C2C2C2C2C2C0C0C0C0C0C0C0C0C4C4C4C4C4C4C4C4C0C0C0C04040404040404040404040404040404000000000000000000000000000000000000000000000000000000000000000008F8F8F8F8F8F8F8F0000000000000000000000008A8ACE
:801300008A8A8A8A8A8A8A8A8A8ADADADADADADADADA8A8A8A8A8A8A8A8A8A8A8A8A8A8A8A8A8A8A8A8A8A8A8A8A8A8A8A8A8A8A8A8A8A8A8A8A8A8A8A8A8A8A8A8A8A8A8A8A000000000000000000000000000000000000000000000000000000000000000000000000000000000000000000000000000000000000000000000000000059
:801380000000000000000000000000000000000000000000000000000000000000000000000000000000000000000000000000000000000000000000000000000000000000000000000000000000000000000000000000000000000000000000000000000000000000000000000000000000000000000000000000000000000000000000ED
:8014000000000000000000000000000000000000000000000000000000000000000000000000000000000000000000000000000000000000000000000000000000000000000000000000000000000000000000000000000000000000000000000000000000000000000000000000000000000000000000000000000000000000000000006C
:801480000000000000000000000000000000000000000000000000000000484848488A8A8A8A0000000000000000000000000000000000000000000000000000000000000000000000000000000000000000000000000000000000000080000000000000000000000000000000000000000000000000000000000000000000000000000024
:80150000000000000000000000000000000000000000000000000000000000000000000000000000000000000000000000000000000000000000000000000000000000000000000000000000000000000000000000000000000000000000000000000000000000000000000000000000000000000000CD8800000000000000000000000016
:801580000000000000000000000000000000000000000000000000000000000000000000000000000000000000000000000000000000000000000000000000000000000000000000000000000000000000000000000000000000000000000000000000000000000000000000000000000000000000000000000000000000000000000000EB
:8016000000000000000000000000000000000000000000000000000000000000000000000000000000000000000000000000000000000000000000000000000000000000000000009A7D0000000000000000000000000000000000000000000000000000000000000000000000000000000000000000000000000000000000000000000053
:801680000000000000000000000000000000000000000000000000000000000000000000000000000000000000000000000000000000000000000000000000000000000000000000000000000000000000000000000000000000000000000000000000000000000000000000000000000000000000000000000000000000000000000000EA
:80170000000000000000000000000000000000000000000000009A7D000000000000000000000000000000000000000000000000000000000000000000000000000000000000000000000000000000000000000000000000000000000000000000000000000000000000000000000000000000000000000000000000000000000000000052
:8017800000000000000000000000000000000000000000000000000000000000000000000000000000000000000000000000000000000000000000000000000000000000000000000000000000000000000000000000000000000000000000000000000000000000000000009A7D00000000000000000000000000000000000000000000D2
:80180000000000000000000000000000000000000000000000000000000000000000000000000000000000000000000000000000000000000000000000000000000000000000000000000000000000000000000000000000000000000000000000000000000000000000000000000000000000000000000000000000000000000000000068
:80188000000000000000000000000000000000000000000000000000000000000000000000000000000000000000000000000000000000000000000000009A7D0000000000000000000000000000000000000000000000000000000000000000000000000000000000000000000000000000000000000000000000000000000000000000D1
:80190000000000000000000000000000000000000000000000000000000000000000000000000000000000000000000000000000000000000000000000000000000000000000000000000000000000000000000000000000000000000000000000000000000000000000000000000000000000000000000000000000000000000000000067
:801980000000000000000000000000009A7D000000000000000000000000000000000000000000000000000000000000000000000000000000000000000000000000000000000000000000000000000000000000000000000000000000000000000000000000000000000000000000000000000000000000000000000000000000000000D0
:801A0000000000000000000000000000000000000000000000000000000000000000000000000000000000000000000000000000000000000000000000000000000000000000000000000000000000000000000000000000000000000000000000009A7D00000000000000000000000000000000000000000000000000000000000000004F
:801A80000000000000000000000000000000000000000000000000000000000000000000000000000000000000000000000000000000000000000000000000000000000000000000000000000000000000000000000000000000000000000000000000000000000000000000000000000000000000000000000000000000000000000000E6
:801B00000000000000000000000000000000000000000000000000000000000000000000000000000000000000000000000000009A7D00000000000000000000000000100000000000000000000000000000000010000000000000000000000040000020000010000000000000000002004000002000001000000000000000000200000149
:801B80000000000000000000000000000000000000000020000010000000000000000002000041000020000000000000000000000000000000002000000000000000000400000000000000002000000000000000000000000000000000200000000000000000000000000000000000000000000000000000000000020000000000000000EC
:801C00000000958B000000000200000100000000000000000000000000000000000100000000000000000000000000000000000000000000000000000000000000000000010000000000000000000000000000000000000000000000000000000000000000000000000000000000000000000000000000000000001000000000000000002F
:801C800004000010104000000000000000000010000000000000000100000010000000000000100000001010000100000000000000000000000000000000410000000000000000000000040000000040000000000000000069AA00000010100000000000000000000001010000001010000000000000000000004040002020001010000074
:801D000000000000000202404101202000101000000000000000020200010100000000000000000000000000000000000020200010100000000000000002020041410020200000001000000004041000004040002020101000000000000404000000100111002020000000000000100000000000000101302000101000000000000000005D
:801D8000000041410000000000000000000004040002024040000000000000000000000404000202000001400000000000000000000000000000000000000000000000000000000000000010000000000000000000000040000020000010000000000000000002004000002000001000000000000000000200000100000000000000000093
:801E0000000000000000000000000000001000000000000000000200004100002000000000000000000000000000000000000000000000000000000000000000000000200000000000000000000000000000000020000000000000000000000000000000000000000000000000000000000002000000000000000000BF730000000000007B
:801E80000000000000000000000000000000000000000000000000000000000000000000000000000000000000000000000000000000000000000000000000000000000000000000000000000000000000000000000000000000000000000000000000000000000000000000000000000000000000000000000000000000000000000000E2
:801F000000000000000000000000000000000000000000000000000000000000000000000000000000000000000000000000000000000000000000000000000000000000000000000000000000009A7D000000000000000000000000000000000000000000000000000000000000000000000000000000000000000000000000000000004A
:801F80000000000000000000000000000000000000000000000000000000000000000000000000000000000000000000000000000000000000000000000000000000000000000000000020000000000000000000000000000000000000000000000000000000000000000000000000000000000000000000000000000000000000000000C1
:802000000000000000000000000000000000000000000000000000000000000088020000000000000010000000000000000000000000000000000000000000000000000000000000000000000000000000000000000000000000000000000000000000000000000000000000000000000000000000000000000000200000000000000000A6
:8020800000000000000000000000000000000000000000000000000000000000000000000000000000000000000000000000000000000000000000000000000000000000000000000000000000000000000000000000000000000000000000000000000000000000000000000000000000003C410000000000000000000000000000000063
:8021000000000000000000000000000000000000000000000000000000000000000000000000000000000000000000000000000000000000000000000000000000000000000000000000000000000000000000000000000000000000000000000000000000000000000000000000000000000000000000000000000000000000000000005F
:80218000000000000000000000000000000000000000000000000000000000000000000000000000000000000000000000000000000000000000000000000000000000009A7D0000000000000000000000000000000000000000000000000000000000000000000000000000000000000000000000000000000000000000000000000000C8
:8022000000000000000000000000000000000000000000000000000000000000000000000000000000000000000000000000000000000000000000000000000020000000000000000000000000000000000000000000000000000000000000000000000000000000000000000000000000000000000000000000000000000000000000003E
:80228000000000000000000000000000000000000000880200000000000000000000000000000000000000000000000000000000000000000000000000000000000000000000000000000000000000000000000000000000000000000000000000000000000000000000000000000000000000000000000000000000000000000000000054
:80230000000000000000000000000000000000000000000000000000000000000000000000000000000000000000000000000000000000000000000000000000000000000000000000000000000000000000000000000000000000000000000000000000000000009A7D000000000000000000000000000000000000000000000000000046
:802380000000000000000000000000000000000000000000000000000000000000000000000000000000000000000000000000000000000000000000000000000000000000000000000000000000000000000000000000000000000000000000000000000000000000000000000000000000000000000000000000000000000000000000DD
:802400000000000000000000000000000000000000000000000000000000000000000000000000000000000000000000000000000000000000009A7D00000000000000000000000000000000000000000000000000000000000000000000000000000000000000000000000000000000000000000000000000000000000000000000000045
:802480000000000000000000000000000000000000000000000000000000000000000000000000000000000000000000000000000000000000000000000000000000000000000000000000000000000000000000000000000000000000000000000000000000000000000000000000000000000000000000000000000000000000000000DC
:8025000000000000000000009A7D0000000000000000000000000000000000000000000000000000000000000000000000000000000000000000000000000000000000000000000000000000000000000000000000000000000000000000000000000000000000000000000000000000000000000000000000000000000000000000000044
:802580000000000000000000000000000000000000000000000000000000000000000000000000000000000000000000000000000000000000000000000000000000000000000000000000000000000000000000000000000000000000009A7D000000000000000000000000000000000000000000000000000000000000000000000000C4
:8026000000000000000000000000000000000000000000000000000000000000000000000000000000000000000000000000000000000000000000000000000000000000000000000000000000000000000000000000000000000000000000000000000000000000000000000000000000000000000000000000000000000000000000005A
:8026800000000000000000000000000000000000000000000000000000000000000000000000000000000000000000009A7D00000000000000000000000000000000000000000000000000000000100000000000000000000000000000000000000000000000000000000000000000000000000000000000000000000000000000000000B3
:80270000000000000000000000200000000000000000000000000000000000000000000000000000000000000000000000000000000000000000000000000000000000000000000000000000000000000000000000000000000000000000000000000000000000000000000000000000000000000000000000000000000000000000317692
:802780000000000000000000000000000000000000000000000000000000000000100000000000000000000000000000000000000000000000000000000000000000000000000000000000000000000000000000000000000000000000000020000000000000000000000000000000000000000000000000000000000000000000000000A9
:802800000000000000000000000000000000000000000000000000000000000000000000000000000000000000000000000000000000000000000000000000000000000000000000000000000000000000000000A1910000000000000000000000000000000000000000000000000000000000000000000000000000000000000000000026
:802880000000000000000000000000000000000000000000000000000000000000000000000000000000000000000000000000000000000000000000000000000000000000000000000000000000000000000000000000000000000000000000000000000000000000000000000000000000000000000000000000000000000000000000D8
:80290000000000000000000000000000000000000000000000000000000000000000000000009A7D000000000000000000000000000000000000000000000000000000000000000000000000000000000000000000000000000000000000000000000000000000000000000000000000000000000000000000000000000000000000000040
:8029800000000000000000000000000000000000000000000000000000000000000000000000000000000000000000000000000000000000000000000000000000000000000000000000000000000000000000000000000000000000000000000000000000000000000000000000000000000000000000009A7D00000000000000000000C0
:802A0000000000000000000000000000000000000000000000000000000000000000000000000000000000000000000000000000000000000000000000000000000000000000000000000000000000000000000000000000000000000000000000000000000000000000000000000000000000000000000000000000000000000000000056
:802A8000000000000000000000000000000000000000000000000000000000000000000000000000000000000000000000000000000000000000000000000000000000000000000000009A7D0000000000000000000000000000000000000000000000000000000000000000000000000000000000000000000000000000000000000000BF
:802B0000000000000000000000000000000000000000000000000000000000000000000000000000000000000000000000000000000000000000000000000000000000000000000000000000000000002000000000000000000000000000000000000000000000000000000000000000000000000000000000000000000000000000000035
:802B80000000000000000000000000000000000000000000000000000502000000000000000000000000000000000000000000000000000000000000000000000000000000000000000000000000000000000000000000000000000000000000000000000000000000000000000000000000000000000000000000000000000000000000CE
:802C000000000000000000000000000000000000000000000000000000000000002000000000000000000000000000000000000000000000000000000000000000000000000000000000000000000000000000000000000000000000000000000000000000000000000000000000A51500000000000000000000000000000000000000007A
:802C80000000000000000000000000000000000000000000000000000000000000000000000000000000000000000000000000000000000000000000000000000000000000000000000000000000000000000000000000000000000000000000000000000000000000000000000000000000000000000000000000000000000000000000D4
:802D00000000000000000000000000000000000000000000000000000000000000000000000000000000000000000000000000000000000000000000000000009A7D0000000000000000000000000000000000000000000000000000000000000000000000000000000000000000000000000000000000000000000000000000000000003C
:802D80000000000000000000000000000000000000000000000000000000000000000000000000000000000000000000000000000000000000000000000000002000000000000000000000000000000000000000000000000000000000000000000000000000000000000000000000000000000000000000000000000000000000000000B3
:802E0000000000000000000000000000000092180000000000000000000000008000000000000000000000000000000000000000000000000000000000000000000000000000000000000000000000000000000000000000000000000000000000000000000000000000000000000000000000000000000000000000000000000000000028
:802E8000000000000000000000000000000000000000000000000000000000000000000000000000000000000000000000000000000000000000000000000000000000000000000000000000000000000000000000000000000000000000000000000000FD6C000000000000000000000000800000000000000000000000000000000000E9
:802F0000000000000000000000000000000000000000000000000000000000000000000000000000000000000000000000000000000000000000000000000000000000000000000000000000000000000000000000000000000000000000000000000000000000000000000000000000000000000000000000000000000000000000000051
:802F80000000000000000000000000000000000000000000000000000000000000000000000000000000000000000000000000000000FD6C0000000000000000000000000000000000000000000000000000000000000000000000000000000000000000000000000000000000000000000000000000000000000000000000000000000068
:803000000000000000000000000000000000000000000080000000000000000000000000000000000000000000000000000000000000000000000020000000000000000000000000000000000000000000000000000000000000000000000000000000000000000000000000000000000000000000000000000000000000000000000000B0
:80308000000000009FC600000000000000000000000000000000000000000000000000000000000000000000000000000000000000000000000000000000000000000000000000000000000000000000000000000000000000000000000000000000000000000000000000000000000000000000000000000000000000000000000000006B
:8031000000000000000000000000000000000000000000000000000000000000000000000000000000000000000000000000000000000000000000000000000000000000000000000000000000000000000000000000000000009A7D0000000000000000000000000000000000000000000000000000000000000000000000000000000038
:803180000000000000000000000000000000000000000000000000000000000000000000000000000000000000000000000000000000000000000000000000000000000000000000000000000000000000000000000000000000000000000000200000000000000000000000000000000000000000000000000000000000000000000000AF
:80320000000000000000000000000000000000000000000000000000000000000000000000000000000000000502000000000000000000000000000000000000000000000000000000000000000000000000000000000000000000000000000000000000000000000000000000000000000000000000000000000000000000000000000047
:803280000000000000000000800000000000000000000000000000000000000000000000000000000000000000000000000000000000000000000000000000000000000000000000000000000000000000000000000000000000000000000000000000000000000000000000000000000000000000000000000000000000C96E0000000017
:8033000000000000000000000000000000000000000000000000000000000000000000000000000000000000000000000000000000000000000000000000000000000000000000000000000000000000000000000000000000000000000000000000000000000000000000000000000000000000000000000000000000000000002000002D
:80338000000000000000000000000000000000000000000000000000000000000000000000000000000000000000000000000000000000000000000000000000000000000000000000000000000000008A63000000008000000000000000000000000000000000000000000000000000000000000000000000000000000000000000000060
:8034000000000000000000000000000000000000000000000000000000000000000000000000000000000000000000000000000000000000000000000000000000000000000000000000000000000000000000000000000000000000000000000000000000000000000000000000000000000000000000000000000000000000000000004C
:803480000000000000000000000000000000000000000000000000000000000100008D72000000000000000000000000000000000000000000000000000000000000000000000000000000000000000000000000000000000000000000000000000000000000000000000000000000000000000000000000000000000000000000000000CC
:80350000000000000000000000000000000000000000000000000000000000000000000000000000000000000000000000000000000000000000000000000000000000000000000000000000000000000000000000000000000000000000000000000000000000000000000000000000000000009A7D000000000000000000000000000034
:803580000000000000000000000000000000000000000000000000000000000000000000000000000000000000000000000000000000000000000000000000000000000000000000000000000000000000000000000000000000000000000000000000000000000000000000000000000000000000000000000000000000000000000000CB
:803600000000000000000000000000000000000000000000000000000000000000000000000000000000000000000000000000000000000000000000000000000000000000009A7D00000000000000000000000000000000000000000000000000000000000000000000000000000000000000000000000000000000000000000000000033
:803680000000000000000000000000000000000000000000000000000000000000000000000000000000000000000000000000000000000000000000000000000000000000000000000000000000000000000000000000000000000000000000000000000000000000000000000000000000000000000000000000000000000000000000CA
:8037000000000000000000000000000000000000000000009A7D0000000000000000000000000000000000000000000000000000000000000000000000000000000000000000000000000000000000000000000000000000000000000000000000000000000000000000000000000000000000000000000000000000000000000000000032
:803780000000000000000000000000000000000000000000000000200000000000000000000000000000000000000000000000000000000000000000000000000000000000000000000000000000000000000000000000000000000000000000000000000000000000008A63000000000000000000000000000000000000000000000000BC
:80380000000000000000000000000000000000000000000000000000000000000000000000000000000000000000000000000000000000000000000000000000000000000000000000000000000000000000000000000000000000000000000000000000000000000000000000000000000000000000000000000000000000000000000048
:8038800000000000000000000000000000000000000000000000000000000000000000000000000000000000000000000000000000000000000000009A7D00000000000000000000000000000000000000000000000000000000000000000000000000000000000000000000000000000000000000000000000000000000000000000000B1
:80390000000000000000000000000000000000000000000000000000000000000000000000000000000000000000000000000000000000000000000000000000000000000000000000000000000000000000000000000000000000000000000000000000000000000000000000000000000000000000000000000000000000000000000047
:80398000000000000000000000015BBD0000000000000000000000000000000000000000000000000000000000000000000000000000000000000000000000000000000000000000000000000000000000000000000000000000000000000000000000000000000000000000000000000000000000000000000000000000000000000000AE
:803A000000000000000000000000000000000000000000000000000000000000000000000000000000000000000000000000000000000000000000000000000000000000000000000000000000000000000000000000000000000000000000009A7D000000000000000000000000000000000000000000000000000000000000000000002F
:803A80000000000000000000000000000000000000000000000000000000000000000000000000000000000000000000000000000000000000000000000000000000000000000000000000000000000000000000000000000000000000000000000000002000000000000000000000000000000000000000000000000000000000000000A6
:803B00000000000000000000000000000000000000000000000000000000000000000000000000000000000000000000000173AD0000800000000000000000000000000000000000000000000000000000000000000000000000000000000000000000000000000000000000000000000000000000000000000000000000000000000000A4
:803B80000000000000000000000000000000000000000000000000000000000000000000000000000000000000000000000000000000200000000000000000000000000000000000000000000000000000000000000000000000000000000000000000000000000000000000000000000000000000000000000000000000000000000000A5
:803C0000C059000000800000000000000000000000000000000000000000000000000000000000000000000000000000000000000000000000000000000000000000000000000000000000000000000000000000000000000000000000000000000000000000000000000000000000000000000000000000000000000000000000000000AB
:803C800000000020000000000000000000000000000000000000000000000000000000000000000000000000000000000000000000000000000000000000000000000000000000000000000000000000000000000100C5010010000000020000010002000001000000000000000000000000000000000000000000000000000000000000C7
:803D000000000000000000000000000080000000408000200040100020000010000000020000010002000001000000000000000000000000000000000000000000000000000000000000000000000000000000000000800000206080002000401000200000100400000200040100020000010000000000000000000000000000000000002F
:803D800000000000000000000000000000000000000000000000000080000000408000200040000082FC000000000000000000000000000000000000000000000000000000000000000000000000000000000000000000000000000000000000000000000000000000000000000000000000000000000000000000000000000000000000A5
:803E000000000000000000000000000000000000000000000000000000000000000000000000000000000020200000000000000000000000000000000000000000000000000000000000000000000000000000000000000000000000000000000000000000000000000000000000000000000000000000000000A2730000000000000000ED
:803E8000000000000000000080000000000000000000000000000000000000000000000000000000000000000000000000000000000000000000000000000000000000000000000000000000000000000000000000000000000000000000000000000000000000000000000000000000000000000000000000000000000000000000000042
:803F00000000000000000000000000000000000000000000000000000000000000000000000000000000000000000000000000000000000000000000000000000000000000000000000000008053000000008000000000000000000000000000000000000000000000000000000000000000000000000000000000000000000000000000EE
:803F80000000000000000000000000000000000000000000000000000000000000000000000000000000000000000000000000000000000000000000000000000000000000000000000000000000000000000000000000000000000000000000000000000000000000000000000000000000000000000000000000000000000000000000C1
:804000000000000000000000000000000000000000000000000000000000DCB200000000000000000000000000000000000000000000000000000000000000000000000000000000000000000000000000000000000000000000000000000000000000000000000000000000000000000000000000000000000000000000000000000000B2
:804080000000000000000000000000000000000000000000000000000000000000000000000000000000000000000000000000000000000000000000000000000000000000000000000000000000000000000000000000000000000000000000000000000000000000000000000000009A7D000000000000000000000000000000000000A9
:8041000000000000000000000000000000000000000000000000000000000000000000000000000000000000000000000000000000000000000000000000000000000000000000000000000000000000000000000000000000000000000000000000000000000000000000000000000000000000000000000000000000000000000000003F
:8041800000000000000000000000000000000000000000000000000000000000000000000000000000000000000000000000000000000000000000000000000000009A7D00000000000000000000000000000000000000000000000000000000000000000000000000000000000000000000000000000000000000000000000000000000A8
:8042000000000000000000000000000000000000000000000000000000000000000000000000000000000000000000000000000000000000000000000000000000000000000000000000000000000000000000000000000000000000000000000000000000000000000000000000000000000000000000000000000000000000000000003E
:80428000000000000000000000000000000000009A7D0000000000000000020000010000000000000000000000000000000000000000000000000000000000000000000000000000000000000000000000800000004000002000001000000000000000000200000100000000000000000000000000000000000000000000000000000000B1
:804300000000000000000000000000000000000000000080000000400000200000100000000000040000020000010000000000000000000000000000000000000000000000000000000000000000000000000000000000000000000000800000004000002000F2B300000000000000000200000100000000000000000000000000000000BE
:804380000000000000000000000000000000000000000000000000000000000000000080000000400000200000100000000000000000020000010000000000000000000000000000000000000000000000000000000000000000000000000000000000000000000000A00000004000002000001000000000000400000200000100000000B3
:8044000000000000000000000000000000000000000000000000000000000000000000000000000000000000000000800000004000002000E2AD0000000000000000020000010000000000000000000000000000000000000000000000000000000000000000000000000000000000000000000000800000004000002000001000000000DA
:80448000000000000200000100000000000000000000000000000000000000000000000000000000000000000000000000000000000000000000008000000040000020000010000000000004000002000001000000000000000000000000000000000000000000000000000000000000000000000000000000000000000000000080000042
:80450000004000002000F2B3000220210110104040022020011012424001212000101242400121A080101242400121A080101242400121A080101242400121A0801012424001212080101202408181200040520220A181101040400220A081101242400121A080101242400121A080101242400121A080101242400121A4841012424001A7
:8045800021A4841012424001212484101202408181240440520220A181101440400220A485101242400121A484101242400121A484101242400121A484000242400121A484000242400020A484000242400020248400020240808024390C000000000000000000000000000000000000000000000000000000000000000000000000000054
:8046000000000000000000000000000000000000000000000000000000000000000000000000000000000000000000000000000000000000000000000000000000000000000000000000000000000000000000000000000000000000000000000000000000000000000000000000000000000000000000000000000000000000000000003A
:804680000000000000000000000000000000000000000000000000000000000000000000000000000000000000009A7D000000000000000000000000000000000000000000000000000000000000000000000000000000000000000000000000000000000000000000000000000000000000000000000000000000000000000000000000A3
:80470000000000000000000000000000000000000000000000000000000000000000000000000000000000000000000000000000000000000000000000000000000000000000000000000000000000000000000000000000000000000000000000000000000000000000000000000000000000000000000000000000000000009A7D000022
:80478000008000000000000000000010000000000000000000000000000000000000000000000000000000000000000000000000000000000000000000000000000000000000000000000000000000000000000000000000000000000000000000000000000000000000000000000000000000000000000000000000000000000000000029
:804800000000000000000000000000000000000000000000000000000000000000000000000000000000000000000000000000000000000000000000000000000000000000000000000000000000000000003223000000000000000000000000000000000000000000000000000000000000000000000000000000000000000000000000E3
:804880000000000000000000000000000000000000000000000000000000000000000000000000000000000000000000000000000000000000000000000000000000000000000000000000000000000000000000000000000000000000000000000000000000000000000000000000000000000000000000000000000000000000000000B8
:8049000000000000000000000000000000000000000000000000000000000000000000009A7D0000000000000000000000000010000000000000000000000000000000000000000000000000000000000000000000000000000000000000000000000000000000000000000000000000000000000000000000000000000000000000000010
:8049800000000000000000000000000000000000000000000000000000000020000000000000000000000000000000000000000000000000000000000000000000000000000000000000000000000000000000000000000000000000000000000000000000000000000000000000000000000000000083DC00000000000000000000000038
:804A0000000000000000000000000000000000000000000000000000000000000000000000000000000000000000000000000000000000000000000000000000000000000000000000000000000000000000000000000000000000000000000000000000000000000000000000000000000000000000000000000000000000000000000036
:804A800000000000000000000000000000000000000000000000000000000000000000000000000000000000000000000000000000000000000000000000000000000000000000009A7D000000000000000000000000000000000000000000000000000000000000000000000000000000000000000000000000000000000000000000009F
:804B0000000000000000000000000000000000000000000000000000000000000000000000000000000000000000000000000000000000000000000000000000000000000000000000000000000000000000000000000000000000000000000000000000000000000000000000000000000000000000000000000000000000000000000035
:804B8000000000000000000000000000000000000000000000009A7D00000000000000000000000000000000000000000000000000000000000000000000000000000000000000000000000000000000000000000000000000000000000000000000000000000000000000000000000000000000000000000000000000000000000000009E
:804C000000000000000000000000000000000000000000000000000000000000000000000000000000000000000000000000000000000000000000000000000000000000000000000000000000000000000000000000000000000000000000000000000000000000000000009A7D000000000000000000000000000000000000000000001D
:804C8000000000000000000000000000000000000000000000000000000000000000000000000000000000000000000000000000000000000000000000000000000000000000000000000000000000000000000000000000000000000000000000000000000020000000000000000000000000000000000000000000000000000000000094
:804D000000000000000000000000000000000000000000000000000000000000000000000000000000000000000000000000000000000000000000000000D73D00000000000000000000000000000000000000000000000000000000000000000000000000000000000000000000000000000000000000000000000000000000000000001F
:804D80000000000000000000000000000000000000000000000000000000000000000000000000000000000000000000000000000000000000000000000000000000000000000000000000000000000000000000000000000000000000000000000000000000000000000000000000000000000000000000000000000000000000000000B3
:804E00000000000000000000000000009A7D0000000000000000000000000000000000000000000000000000000000000000000000000000000000000000000000000000000000000000000000000000000000000000000000000000000000000000000000000000000000000000000000000000000000000000000000000000000000001B
:804E8000000000000000000000000000000000000000000000000000000000000000000000000000000000000000000000000000000000000000000000000000000000000000000000000000000000000000000000000000000000000000000000009A7D00000000000000000000000000000000000000000000000000000000000000009B
:804F0000000000000000000000000000000000000000000000000000000000000000000000000000000000000000000000000000000000000000000000000000000000000000000000000000000000000000000000000000000000002000000000000000000000000000000000000000000000000000000000000000000000000000000011
:804F8000000000000000000000000000000000000000000000000000000000000000000000000000000000000000000000000000D73D0000000000000000000000000000000000000000000000000000000000000000000000000000000000000000000000000000000000000000000000000000000000000000000000000000000000009D
:80500000000000000000000000000000000000000000000000000000000000000000000000000000000000000000000000000000000000000000000000000000000000000000000000000000000000000000000000000000000000000000000000000000000000000000000000000000000000000000000000000000000000000000000030
:8050800000009A7D0000000080000000000000000000000000000000000000000000000000000000000000000000000000000000000000000000000000000000000000000000000000000000000000000000000000000000000000000000000000000000000000000000000000000000000000000000000000000000000000000000000019
:805100000000000000000000000000000000000000000000000000000000000000000000000000000000000000000000000000000000000000000000000000000000000000000000000000000000000000000000000100008D720000000000000000000000000000000000000000000000000000000000000000000000000000000000002F
:805180000000000000000000000000000000000000000000000000000000000000000000000000000000000000000000000000000000000000000000000000000000000000000000000000000000000000000000000000000000000000000000000000000000000000000000000000000000000000000000000000000000000000000000AF
:8052000000000000000000000000000000000000000000000000000000000000000000000000000000009A7D0000000000000000000000000000000000000000000000000000000000000000000000000000000000000000000000000000000000000000000000000000000000000000000000000000000000000000000000000000000017
:805280000000000000000000000000000000000000000000000000000000000000000000000000000000000000000000000000000000000000000000000000000000000000000000000000000000000000000000000000000000000000000000000000000000000000000000000000000000000000000000000000009A7D00000000000097
:8053000000000000000000000000000000000000000000000000000000000000000000000000000000000000000000000000000000000000000000000000000000000000000000000000000000000000000000000000000000000000000000000000000000000000000000000000000000000000000000000000000000000000000000002D
:8053800000000000000000000000000000000000000000000000000000000000000000000000000000000000000000000000000000000000000000000000000000000000000000000000000000009A7D0000000000000000000000000000000000000000000000000000000000000000000000000000000000000000000000000000000096
:8054000000000000000000000000000000000000000000000000000000000000000000000000000000000000000000000000000000000000000000000000000000000000000000000000000000000000000000000000000000000000000000000000000000000000000000000000000000000000000000000000000000000000000000002C
:80548000000000000000000000000000000000000000000000000000000000009A7D000000000000000000000000000000000000000000000000000000000000000000000000000000000000000000000000000000000000000000000000000000000000000000000000000000000000000000000000000000000000000000000000000095
:8055000000000000000000000000000000000000000000000000000000000000000000000000000000000000000000000000000000000000000000000000000000000000000000000000000000000000000000000000000000000000000000000000000000000000000000000000000000009A7D0000800000000000000000000000000094
:805580000000000000000000000000000000000000000000000000000000000000000000000000000000000000000000000000000000000000000000000000000000000000000000000000000000000000000000000000000000000000000000000000000000000000000000000000000000000000000000000000000000000000000000AB
:8056000000000000000000000000000000000000000000000000000000000000000000000000000000000000000000000000000000000000000000000000000000000000E8490000000000000000000000000000000000000000000000000000000000000000000000000000000000000000000000000000000000000000000000000000F9
:805680000000000000000000000000000000000000000000000000000000000000000000000000000000000000000000000000000000000000000000000000000000000000000000000000000000000000000000000000000000000000000000000000000000000000000000000000000000000000000000000000000000000000000000AA
:805700000000000000000000000000000000000000009A7D00008000000000000000000000000000000000000000000000000000000000000000000000000000000000000000000000000000000000000000000000000000000000000000000000000000000000000000000000000000000000000000000000000000000000000000000092
:8057800000000000000000000000000000000000000000000000000000000000000000000000000000000000000000000000000000000000000000000000000000000000000000000000000000000000000000000000000000000000000000000000000000000000E849000000000000000000000000000000000000000000000000000078
:80580000000000000000000000000000000000000000000000000000000000000000000000000000000000000000000000000000000000000000000000000000000000000000000000000000000000000000000000000000000000000000000000000000000000000000000000000000000000000000000000000000000000000000000028
:805880000000000000000000000000000000000000000000000000000000000000000000000000000000000000000000000000000000000000015BBD0000008000000000000000000000000000000000000000000000000000000000000000000000000000000000000000000000000000000000000000000000000000000000000000000F
:80590000000000000000000000000000000000000000000000000000000000000000000000000000000000000000000000000000000000000000000000000000000000000000000000000000000000000000000000000000000000000000000000000000000000000000000000000000000000000000000000000000000000000000000027
:805980000000000000000100D51F00100000000200000100020000010000000000000000000000000000000000000000000000000000000000000000000000000000000000008000000040800020004010002000001000000002000001000200000100000000000000000000000000000000000000000000000000000000000000000000B6
:805A0000000000000000000080000000408000200040100020000010040000020004010002000001000000000000000000000000000000000000000000000000000000000000000000000000000000000000800000004080002000400000BAF2000000000000000000000000000000000000000000000000000000000000000000000000EC
:805A80000000000000000000000000000000000000000000000000000000000000000000000000000000000000000000000000000000000000000000000000000000000000000000000000000000000000000000000000000000000000000000000000000000000000000000000000000000000000000000000000000000000000000000A6
:805B000000000000000000000000000000000000000000000000000000000000000000000000000000000000000000009A7D000000000000000000000000000000000000000000000000000000000000000000000000000000000000000000000000000000000000000000000000000000000000000000000000000000000000000000000E
:805B80000000000000000000000000000000000000000000000000000000000000000000000000000000000000000000000000000000000000000000000000000000000000000000000000000000000000000000000000000000000000000000000000000000000000000000000000000000000000000000000000000000000000009A7D8E
:805C00000000000080000000000000000000000000000000000000000000000000000000000000000000000000000000000000000000000000000000000000000000000000000000000000000000000000000000000000000000000000000000000000000000000000000000000000000000000000000000000000000000000000000000A4
:805C800000000000000000000000000000000000000000000000000000000000000000000000000000000000000000000000000000000000000000000000000000000000000000000000000000000000000100008D7200000000000000000000000000000000000000000000000000000000000000000000000000000000000000000000A4
:805D0000000000000000000000000000000000000000000000000000000000000000000000000000000000000000000000000000000000000000000000000000000000000000000000000000000000000000000000000000000000000000000000000000000000000000000000000000000000000000000000000000000000000000000023
:805D8000000000000000000000000000000000000000000000000000000000000000000000009A7D00000000000000000000000000000000000000000000000000000000000000000000000000000000000000000000000000000000000000000000000000000000000000000000000000000000000000000000000000000000000000008C
:805E000000000000000000000000000000000000000000000000000000000000000000000000000000000000000000000000000000000000000000000000000000000000000000000000000000000000000000000000000000000000000000000000000000000000000000000000000000000000000000009A7D000000000000000000000B
:805E80000000000000000000000000000000000000000000000000000000000000000000000000000000000000000000000000000000000000000000000000000000000000000000000000000000000000000000000000000000000000000000000000000000000000000000000000000000000000000000000000000000000000000000A2
:805F0000000000000000000000000000000000000000000000000000000000000000000000000000000000000000000000000000000000000000000000000000000000000000000000009A7D000000000000000002000001000000000000000000000000000000000000000000000000000000000000000000000000000000000000000007
:805F80000000008000000040000020000010000000000000000002000001000000000000000000000000000000000000000000000000000000000000000000000000000000000000000000000080000000400000200000100000000000040000020000010000000000000000000000000000000000000000000000000000000000000000B7
:80600000000000000000000000000000000000800000004000002000F2B3000000000000000002000001000000000000000000000000000000000000000000000000000000000000000000000000000000000000000000000080000000400000200000100000000000000000020000010000000000000000000000000000000000000000A5
:8060800000000000000000000000000000000000000000000000000000000080000000400000200000100000000000040000020000010000000000000000000000000000000000000000000000000000000000000000000000000000000000000000000000800000004000002000F2B30000800000000000020000010000000000000000A1
:80610000000000000000000000000000000000000000000000000000000000000000000000000000000000800000004000002000001000000000000000000200000100000000000000000000000000000000000000000000000000000000000000000000000000000000000000000000008000000040000020000010000000000004000038
:806180000200000100000000000000000000000000000000000000000000000000000000000000000000000000000000000000000000008000000040000020008087000220210110104040022020011012424001212000101242400121A080101242400121A080101242400121A080101242400121A08010124240012120801012024081C5
:8062000081200040520220A181101040400220A081101242400121A080101242400121A080101242400121A080101242400121A484101242400121A4841012424001212484101202408181240440520220A181101440400220A485101242400121A484101242400121A484101242400121A484000242400121A484000242400020A4840011
:806280000242400020248400020240808024390C0000800000000000000000000000000000000000000000000000000000000000000000000000000000000000000000000000000000000000000000000000000000000000000000000000000000000000000000000000000000000000000000000000000000000000000000000000000025
:80630000000000000000000000000000000000000000000000000000000000000000000000000000000000000000000000000000000000000000000000000000000000000000000000000000000000000000000000000000000000000000000000000000E849000000000000000000000000000000000000000000000000000000000000EC
:8063800000000000000000000000000000000000000000000000000000000000000000000000000000000000000000000000000000000000000000000000000000000000000000000000000000000000000000000000000000000000000000000000000000000000000000000000000000000000000000000000000000000000000000009D
:8064000000000000000000000000000000000000000000000000000000000000000000000000000000000000000000000000000000015BBD0000008000000000000000000000000000000000000000000000000000000000000000000000000000000000000000000000000000000000000000000000000000000000000000000000000083
:8064800000000000000000000000000000000000000000000000000000000000000000000000000000000000000000000000000000000000000000000000000000000000000000000000000000000000000000000000000000000000000000000000000000000000000000000000000000000000000000000000000000000000000000009C
:8065000000000100D51F000000000000000000000000000000000000000000000000000000000000000000000000000000000000000000000000000000000000000000000000000000000000000000000000000000000000000000000000000000000000000000000000000000000000000000000000000000000000000000000000000026
:8065800000000000000000000000000000000000000000000000000000000000000000000000000000000000000000000000000000000000000000000000000000000000000000000000000000000000000000000000000000009A7D0000000000000000000000000000000000000000000000000000000000000000000000000000000084
:8066000000000000000000000000000000000000000000000000000000000000000000000000000000000000000000000000000000000000000000000000000000000000000000000000000000000000000000000000000000000000000000000000000000000000000000000000000000000000000000000000000000000000000000001A
:80668000000000000000000000000000000000000000000000000000000000000000000000000000000000009A7D000000000000000000000000000000000000000000000000000000000000000000000000000000000000000000000000000000000000000000000000000000000000000000000000000000000000000000000000000083
:8067000000000000000000000000000000000000000000000000000000000000000000000000000000000000000000000000000000000000000000000000000000000000000000000000000000000000000000000000000000000000000000000000000000000000000000000000000000000000000000000000000000009A7D0000000002
:80678000000000000000000000000000000000000000000000000000000000000000000000000000000000000000000000000000000000000000000000000000000000000000000000000000000000000000000000000000000000000000000000000000000000000000000000000000000000000000000000000000000000000000000099
:80680000000000000000000000000000000000000000000000000000000000000000000000000000000000000000000000000000000000000000000000000000000000000000000000000000000000009A7D000000000000000000000000000000000000000000000000000000000000000000000000000000000000000000000000000001
:80688000000000000000000000000000000000000000000000000000000000000000000000000000000000000000000000000000000000000000000000000000000000000000000000000000000000000000000000000000000000000000000000000000000000000000000000000000000000000000000000000000000000000000000098
:806900000000000000000000000000000000000000000000000000000000000000009A7D00000000000000000000000000000000000000000000000000000000000000000000000000000000000000000000000000000000000000000000000000000000000000000000000000000000000000000000000000000000000000000000000000
:80698000000000000000000000000000000000000000000000000000000000000000000000000000000000000000000000000000000000000000000000000000000000000000000000000000000000000000000000000000000000000000000000000000000000000000000000000000000000009A7D000000000000000000000000000080
:806A0000000000000000000000000000000000000000000000000000000000000000000000000000000000000000000000000000000000000000000000000000000000000000000000000000000000000000000000000000000000000000000000000000000000000000000000000000000000000000000000000000000000000000000016
:806A80000000000000000000000000000000000000000000000000000000000000000000000000000000000000000000000000000000000000000000000000000000000000009A7D0000000000000000000000000000000000000000000000000000000000000000000000000000000000000000000000000000000000000000000000007F
:806B0000000000000000000000000000000000000000000000000000000000000000000000000000000000000000000000000000000000000000000000000000000000000000000000000000000000000000000000000000000000000000000000000000000000000000000000000000000000000000000000000000000000000000000015
:806B800000000000000000000000000000000000000000009A7D000000000000000000000000000000000000000000000000000000000000000000000000000000000000000000000000000000000000000000000000000000000000000000000000000000000000000000000000000000000000000000000000000000000000000000007E
:806C00000000000000000000000000000000000000000000000000000000000000000000000000000000000000000000000000000000000000000000000000000000000000000000000000000000000000000000000000000000000000000000000000000000000000009A7D000000000000000000000000000000000000000000000000FD
:806C8000000000000000000000000000000000000000000000000000000000000000000000000000000000000000000000000000000000000000000000000000000000000000000000000000000000000000000000000000000000000000000000000000000000000000000000000000000000000000000000000000000000000000000094
:806D000000000000000000000000000000000000000000000000000000000000000000000000000000000000000000000000000000000000000000009A7D000000008000000000000000000000000000000000000000000000000000000000000000000000000000000000000000000000000000000000000000000000000000000000007C
:806D8000000000000000000000000000000000000000000000000000000000000000000000000000000000000000000000000000000000000000000000000000000000000000000000000000000000000000000000000000000000000000000000000000000000000000000000000000000000000000000000000000000000000000000093
:806E0000000000000000000100008D72000000000000000000000000000000000000000000000000000000000000000000000000000000000000000000000000000000000000000000000000000000000000000000000000000000000000000000000000000000000000000000000000000000000000000000000000000000000000000012
:806E800000000000000000000000000000000000000000000000000000000000000000000000000000000000000000000000000000000000000000000000000000000000000000000000000000000000000000000000000000000000000000009A7D000000000000000000000000000000000000000000000000000000000000000000007B
:806F0000000000000000000000000000000000000000000000000000000000000000000000000000000000000000000000000000000000000000000000000000000000000000000000000000000000000000000000000000000000000000000000000000000000000000000000000000000000000000000000000000000000000000000011
:806F8000000000000000000000000000000000000000000000000000000000000000000000000000000000000000000000009A7D00000000000000000000000000000000000000000000000000000000000000000000000000000000000000000000000000000000000000000000000000000000000000000000000000000000000000007A
:80700000000000000000000000000000000000000000000000000000000000000000000000000000000000000000000000000000000000000000000000000000000000000000000000000000000000000000000000000000000000000000000000000000000000000000000000000000000000000000000000000000000000000000000010
:807080009A7D00000000000000000000000000000000000000000000000000000000000000000000000000000000000000000000000000000000000000000000000000000000000000000000000000000000000000000000000000000000000000000000000000000000000000000000000000000000000000000000000000000000000079
:80710000000000000000000000000000000000000000000000000000000000000000000000000000000000000000000000000000000000000000000000000000000000000000000000000000000000000000000000009A7D0000000000000000000000000000000000000000000000000000000000000000000000000000000000000000F8
:8071800000000000000000000000000000000000000000000000000000000000000000000000000000000000000000000000000000000000000000000000000000000000000000000000000000000000000000000000000000000000000000000000000000000000000000000000000000000000000000000000000000000000000000008F
:807200000000000000000000000000000000000000000000000000000000000000000000000000009A7D00008000000000000000000000000000000000000000000000000000000000000000000000000000000000000000000000000000000000000000000000000000000000000000000000000000000000000000000000000000000077
:8072800000000000000000000000000000000000000000000000000000000000000000000000000000000000000000000000000000000000000000000000000000000000000000000000000000000000000000000000000000000000000000000000000000000000000000000000000000000000000000000000E84900000000000000005D
:8073000000000000000000000000000000000000000000000000000000000000000000000000000000000000000000000000000000000000000000000000000000000000000000000000000000000000000000000000000000000000000000000000000000000000000000000000000000000000000000000000000000000000000000000D
:807380000000000000000000000000000000000000000000000000000000000000000000000000000000000000000000000000000000000000000000000000000000000000000000000000009A7D000080000000000000000000000000000000000000000000000000000000000000000000000000000000000000000000000000000000F6
:8074000000000000000000000000000000000000000000000000000000000000000000000000000000000000000000000000000000000000000000000000000000000000000000000000000000000000000000000000000000000000000000000000000000000000000000000000000000000000000000000000000000000000000000000C
:807480000000000000000000000000000000000000000000000000000000E849000000000000000000000000000000000000000000000000000000000000000000000000000000000000000000000000000000000000000000000000000000000000000000000000000000000000000000000000000000000000000000000000000000005B
:807500000000000000000000000000000000000000000000000000000000000000000000000000000000000000000000000000000000000000000000000000000000000000000000000000000000000000000000000000000000000000000000000000000000000000000000000000015BBD00000080000000000000000000000000000072
:8075800000000000000000000000000000000000000000000000000000000000000000000000000000000000000000000000000000000000000000000000000000000000000000000000000000000000000000000000000000000000000000000000000000000000000000000000000000000000000000000000000000000000000000008B
:807600000000000000000000000000000000000000000000000000000000000000000000000000000000000000000000000000000000000000000000000000000100D51F001000000002000001000200000100000000000000000000000000000000000000000000000000000000000000000000000000000000000080000000408000209F
:80768000004010002000001000000002000001000200000100000000000000000000000000000000000000000000000000000000000000000000000000000000000080000000408000200040100020000010040000020004010002000001000000000000000000000000000000000000000000000000000000000000000000000000000016
